:020000040800F2
:10000000807E0120AD020008916700088962000827
:100010008967000891080008D17D000800000000F1
:10002000000000000000000000000000B96B0008A4
:10003000D10900080000000099670008C16B0008A2
:10004000C7020008C7020008C7020008C70200086C
:10005000C7020008C7020008C7020008C70200085C
:10006000C7020008C7020008C70200089908000874
:10007000A9080008C7020008C7020008C702000854
:10008000C7020008C7020008C7020008C70200082C
:10009000C7020008C7020008C7020008C70200081C
:1000A000C7020008C7020008C7020008C70200080C
:1000B000C7020008796D0008C7020008C7020008DF
:1000C000C7020008C7020008C7020008C7020008EC
:1000D000C7020008B17D0008C7020008C17D000802
:1000E000C7020008C702000800000000C70200089D
:1000F000C7020008C7020008C7020008C7020008BC
:10010000C7020008C7020008C7020008C7020008AB
:10011000F16F0008C7020008C7020008C702000804
:10012000C7020008C7020008C7020008C70200088B
:10013000C7020008C7020008C7020008C70200087B
:10014000C7020008C702000800000000000000000D
:10015000C7020008C7020008C7020008C70200085B
:10016000C7020008C7020008C7020008C70200084B
:10017000C7020008C7020008C7020008000000000C
:10018000C7020008C7020008C7020008C70200082B
:10019000C7020008C7020008C7020008C70200081B
:1001A000C7020008C7020008C7020008C70200080B
:1001B000C7020008C7020008C7020008C7020008FB
:1001C000C7020008C7020008C7020008C7020008EB
:1001D000C7020008C7020008C7020008C7020008DB
:1001E000C7020008C7020008C7020008C7020008CB
:1001F000C7020008C7020008C7020008C7020008BB
:10020000C7020008C7020008C7020008C7020008AA
:10021000C7020008C7020008C7020008C70200089A
:10022000C7020008C7020008C7020008C70200088A
:10023000C7020008C7020008C7020008C70200087A
:10024000C7020008C7020008C7020008C70200086A
:10025000C7020008C7020008C7020008C70200085A
:10026000C7020008C7020008C7020008C70200084A
:10027000C7020008C7020008C7020008C70200083A
:10028000C7020008C7020008C702000800000000FB
:10029000C7020008C7020008DFF80CD000F0CCFA53
:1002A00000480047E19F0008807E01200648804703
:1002B00006480047FEE7FEE7FEE7FEE7FEE7FEE74B
:1002C000FEE7FEE7FEE7FEE7916C000899020008F2
:1002D0002DE9F05F0546002092469B46884606467B
:1002E000814640241BE0284641464746224600F00E
:1002F0007EF853465A46C01A914110D3114618460B
:10030000224600F065F82D1A67EB01084F46224699
:100310000120002100F05CF817EB00094E41201E7F
:10032000A4F10104DFDC484631462A464346BDE8D5
:10033000F09F10B5431A934209D28318881803E03E
:1003400010F8011D03F8011D521EF9D210BD40EA3C
:1003500001039B0703D009E008C9121F08C0042A43
:10036000FAD203E011F8013B00F8013B521EF9D22A
:1003700010BDD2B201E000F8012B491EFBD270473C
:100380000022F6E710B513460A4604461946FFF761
:10039000F0FF204610BD421C10F8011B0029FBD1C4
:1003A000801A704730B50B460146002020220124F8
:1003B00009E021FA02F59D4205D303FA02F5491B33
:1003C00004FA02F52844151EA2F10102F1DC30BD49
:1003D000202A04DB203A00FA02F100207047914005
:1003E000C2F1200320FA03F3194390407047202AFA
:1003F00004DB203A21FA02F00021704721FA02F3CF
:10040000D040C2F12002914008431946704710B510
:10041000141E73F1000408DA401C41F10001921827
:100420005B411A4301D120F0010010BD2DE9F04DD0
:1004300092469B4611B1B1FA81F202E0B0FA80F225
:1004400020329046FFF7C4FF04460F4640EA0A00F8
:1004500041EA0B0153465A46084313D0114653EA6A
:10046000010019D0C8F140025046FFF7C0FF054611
:100470000E46504659464246FFF7AAFF084305D0AC
:10048000012004E020463946BDE8F08D00200543F8
:1004900046EAE0762C4337430A986305E40AA0EB6A
:1004A00008000022FD0A44EA47540A3002D5002021
:1004B0000146E9E7010510196941DDE90845001920
:1004C0006941BDE8F04DA2E72DE9FE4F804681EA83
:1004D0000300C00F0C46009021F0004123F00045BE
:1004E000B8EB0200A94105D24046214690461C4681
:1004F0000B46024623F00040104347D0270DC7F3B8
:100500000A00C3F30A510290401A019040286BDAA6
:10051000C3F3130040F4801B0098924620B10023DF
:10052000D2EB030A63EB0B0B01985946C0F1400272
:100530005046FFF74DFF06460D4650465946019A74
:1005400000F092F910EB08006141002487EA115293
:1005500084EAE7731A4340D0009A62B3019A012AF1
:100560004FEA075215DC001B61EB02014FF000421D
:1005700002EA0752CDE90042001C41F580113246E3
:100580002B46FFF753FF03B0BDE8F08F40462146EE
:10059000F9E7001B61EB0201001C41F58013001814
:1005A0005B412018A2F5001747EB030140EAD57024
:1005B000B6196D4111E06D084FEA360645EAC0757F
:1005C0004FEA0752001B61EB0201001C41F580114C
:1005D00049084FEA30000019514132462B4603B01A
:1005E000BDE8F04FFFF713BF009801224000002341
:1005F000D0EB020263EBE073009821464FEAE0740F
:10060000B8EB000061EB0401E9E783F000435BE72E
:1006100081F0004158E72DE9FE4F81EA030404F020
:10062000004421F0004100944FF0000B23F0004300
:1006300050EA01045ED052EA03045BD0C3F30A54CB
:10064000C1F30A552C44A4F2F3340194A0FB0254E4
:10065000C1F3130141F48011C3F3130343F4801376
:1006600001FB024400FB034E840A970A44EA8154CA
:1006700047EA8357A4FB076802958D0A05FB0785A7
:100680004FEA932C04FB0C542705029D4FEA0658B1
:1006900047EA1637B5EB08056EEB070C870E920E8E
:1006A00047EA811742EA8312A7FB0201B6EB0B016E
:1006B00064EB00042B0D43EA0C335E1844EB1C5032
:1006C000DA465146E7FB0201C5F313044FEA0B3348
:1006D00043EA14534FEA0432019C43EA0603A4F1AF
:1006E0000C040294009CCDE900B4FFF79FFE03B018
:1006F000BDE8F08F00200146F9E72DE9F04D81EAD1
:10070000030404F0004B21F0004514464FF0000AAA
:1007100023F0004150EA050220D054EA01021DD026
:10072000C5F30A570246C5F31303C1F31300C1F31F
:100730000A5640F4801543F48013A7EB0608101BFB
:10074000D64608F2FD3873EB050002D308F1010824
:1007500001E092185B41B8F1000F03DA0020014676
:10076000BDE8F08D00204FF48011064684460EE06F
:10077000171B73EB050705D3121B63EB0503064339
:100780004CEA010C49084FEA300092185B4150EAEC
:100790000107EDD152EA030012D082EA040083EA95
:1007A0000501084305D0101BAB4106D201220023EE
:1007B00006E000224FF0004302E06FF00102531008
:1007C0001AEB06004CEB085110EB0A0041EB0B0151
:1007D000BDE8F04DFFF71BBEC1F30A52C1F3130190
:1007E00040F2FF3341F480119A4202DA00200146C0
:1007F000704740F233439A42A2F2334202DC524243
:10080000FFF7F5BDFFF7E4BD30B5041E71F100043C
:1008100004DB4FF00044404264EB0101141E73F10D
:10082000000405DB1C464FF00043524263EB040317
:10083000994208BF904230BD1CB509480090094854
:1008400001900546009C06E0E06840F0010394E852
:10085000070098471034AC42F6D3FFF721FD0000A3
:10086000C8340408E8340408202A06DBCB17203AF1
:1008700041FA02F043EAE07306E041FA02F3D040A5
:10088000C2F1200291400843194670470000000061
:10089000FEE700000000000047F2B840C2F201008D
:1008A00000F07ABE0000000047F24040C2F20100B2
:1008B00000F072BE0000000040F20F42D0F800C00D
:1008C000C4F20202944510DC6F22C4F20202944585
:1008D00020DC3F22C4F20202944536DC1022C4F22E
:1008E0000202944554D028224EE040F26F42C4F2F6
:1008F000020294451ADC40F23F42C4F202029445DF
:100900002ADC40F21042C4F20202944540D040F288
:10091000284239E09F22C4F20202944525DC70226D
:10092000C4F20202944533D088222DE040F29F4267
:10093000C4F2020294451FDC40F27042C4F202028B
:10094000944525D040F288421EE04022C4F20202C3
:1009500094451DD0582217E040F24042C4F20202F2
:10096000944515D040F258420EE0A022C4F2020293
:1009700094450DD0B82207E040F2B842C4F202021A
:10098000944505D040F2A042C4F20202944517D12A
:100990000CF0F8024AF6AB23103ACAF6AA23A2FBDF
:1009A000033109A35F2AC1F302115B5C40F2FF31FE
:1009B0002CEA0101C36588BF043181650846704790
:1009C0002CF0FF01F9E700BF000610160006101614
:1009D0007047000000000000EFF3108072B600BF07
:1009E000FEE7000000000000F0B585B047F2BC64EF
:1009F00001A9C2F201044FF480522046012501955D
:100A00001026CDE902650027049704F025FE012099
:100A100001F012FE022001A9CDE901064FF4805237
:100A20002046CDE9035704F017FE032001A9CDE9C4
:100A3000010608204FF48052CDE90307204604F058
:100A40000BFE042001A9CDE901064FF40C700490BF
:100A50004FF480522046039504F0FEFD40F284617D
:100A6000204604F0D9FD05B0F0BD000000000000F4
:100A70000A68002A02681FD022F4F842D1E9073C34
:100A80001A434B6A42EA0C021A430260426847F674
:100A9000FF739A43D1E9013C1A43CB6842EA0C0246
:100AA000D1F810C01A434B6942EA0C0289691A4313
:100AB000114341600020704747F6FF739A43D1E924
:100AC000013C1A43CB6842EA0C02D1F810C01A4329
:100AD0004B6942EA0C02D1F818C01A43CB6942EACA
:100AE0000C02D1F820C01A43496A42EA0C021143B1
:100AF00001600020704700000246406943F6FE7323
:100B000020EA0303002043EA4101516170470000DD
:100B100010B5024600696FF315006FF01F04D1E9AC
:100B200000ECD1E9023140EA0E0004EB431340EA45
:100B30000C000343002043EA4121116110BD000075
:100B40002DE9F041002A826835D040F6FF734FF25C
:100B50000006CFF60F73CFF6FF761A40CB684F69C9
:100B60006FF00F0406EB03330026CFF6F0761A433E
:100B700006EB07573A438260C2688E68D1E90037B6
:100B800002F07042013B04EB07176FF0FF040D69A0
:100B900004EB062600241A43CFF6FF7489693A4312
:100BA00004EB0545013932432A4342EA0161C16041
:100BB0000020BDE8F08101F1080602F0704CD1E997
:100BC00000E278CE6FF00F074FF2000807EB021239
:100BD0006FF0FF0707EB0323AEF1010747EA0C07AD
:100BE000CFF6FF7840F2000E3A4308EB0434CFF61C
:100BF000FF7E00271A4389690EEB0545CFF6F07793
:100C0000224307EB065301392A431A4342EA0161A2
:100C100081600020BDE8F08100284CD0B0B590F88C
:100C2000351019B9044600F04BF82046022180F82F
:100C30003510D0F818C04FF20705BCF1000FCFF601
:100C4000E0751CBF0021416290E80A40C268102B89
:100C50000C6804EA05040C60D0E9045442EA04027A
:100C6000046A42EA0502456A42EA0E0242EA0402C6
:100C7000846A42EA0502C56A42EA0402046B42EA57
:100C800005020D6842EA040242EA050242EA0C0249
:100C900042EA03020A6001D1C2698A61CA6842F06D
:100CA0001E02CA600021C164012280F83520BDE81F
:100CB000B040084670470120704700000000000067
:100CC0002DE9F04786B040F200080446C4F6020859
:100CD0000068002740450597CDE903770297019703
:100CE00002D006B0BDE8F08744F2E04041F60006CD
:100CF000C5F60200C5F6020601AD4FF0020950F834
:100D0000041C4FF00D0A41F0010140F8041C50F89A
:100D1000041C01F0010100910099016841F4807107
:100D20000160016801F4807100910099016841F04F
:100D300040010160016801F04001009100990168E3
:100D400041F080010160016801F08001009100998B
:100D5000016841F0010101600068294600F00100CE
:100D600000900098F020019006F50060CDE9029710
:100D70000497CDF814A001F073FC4FF440602946AD
:100D8000CDE901093046CDF814A0CDE9037701F093
:100D900067FC4FF482402946CDE9010906F58060E1
:100DA000CDF814A0CDE9037701F05AFC4FF4C860E8
:100DB0002946CDE9010908F18050CDF814A0CDE90C
:100DC000037701F04DFC47F240452820C2F20105AF
:100DD000C4F2020028604B20C5E901074FF480608F
:100DE00028614FF4805068614FF48040A8614FF44F
:100DF0008070EF60C5E907070420686201202F6357
:100E0000C5E90A07284601F007F908B1FFF7E4FD34
:100E1000A564AC6306B0BDE8F087000000000000E8
:100E20002DE9F041044601F0FFFC14B3054694F8A7
:100E30003500022820D140F20F472668C4F202078D
:100E400040F26F48BE426FF00E00C4F2020817DC99
:100E50006F21C4F202018E4223DC3F21C4F2020161
:100E60008E4239DC1021C4F202018E4258D0282172
:100E700051E00120BDE8F08180206065012037E26B
:100E800046451ADC40F23F41C4F202018E422ADCA0
:100E900040F21041C4F202018E4241D040F228419A
:100EA00039E09F21C4F202018E4225DC7021C4F298
:100EB00002018E4234D088212DE040F29F41C4F2DD
:100EC00002018E421FDC40F27041C4F202018E42E8
:100ED00026D040F288411EE04021C4F202018E4239
:100EE0001ED0582117E040F24041C4F202018E4268
:100EF00016D040F258410EE0A021C4F202018E4209
:100F00000ED0B82107E040F2B841C4F202018E428F
:100F100006D040F2A041C4F202018E42314607D110
:100F20003146306820F01E0041F8140B6FF080004D
:100F30000A68464500EA0200086019DC9F20C4F2F6
:100F40000200864231DC5720C4F20200864256DCA1
:100F50001020C4F20200864200F091802820C4F2E2
:100F60000200864200F08B804020C4F2020084E040
:100F700045F22F40C5F6020086422BDC40F2B74016
:100F8000C4F20200864248DC40F27040C4F2020023
:100F9000864274D040F28840C4F2020086426ED08D
:100FA00040F2A040C4F2020067E040F22740C4F2E1
:100FB0000200864240DCA020C4F2020086425ED0DD
:100FC000B820C4F20200864259D040F21040C4F268
:100FD000020052E045F26B40C5F6020086423CDC5E
:100FE00045F23040C5F60200864248D045F2444002
:100FF000C5F60200864242D045F258403BE05820F8
:10100000C4F2020086423AD07020C4F20200864246
:1010100035D08820C4F202002FE040F2B840C4F27C
:10102000020086422BD045F20840C5F602008642F7
:1010300025D045F21C401EE040F22840C4F20200D8
:1010400086421CD040F24040C4F20200864216D0D4
:1010500040F25840C4F202000FE045F26C40C5F681
:10106000020086420BD045F29440C5F6020086424B
:1010700005D045F28040C5F60200864204D1206EBC
:10108000016821F480710160306820F00100306057
:101090003068C0070BD001F0C7FB401B0628F7D310
:1010A00020206065032084F83500012020E12068BD
:1010B0000821B8424FF03F0210DC6F23C4F2020354
:1010C00098421CDC3F23C4F20203984232DC102316
:1010D000C4F20203984251D028234AE040451ADC6A
:1010E00040F23F43C4F2020398422ADC40F210432C
:1010F000C4F20203984241D040F2284339E09F23D2
:10110000C4F20203984225DC7023C4F20203984221
:1011100034D088232DE040F29F43C4F2020398426A
:101120001FDC40F27043C4F20203984226D040F222
:1011300088431EE04023C4F2020398421ED0582385
:1011400017E040F24043C4F20203984216D040F246
:1011500058430EE0A023C4F2020398420ED0B823F5
:1011600007E040F2A043C4F20203984206D040F2E6
:10117000B843C4F20203984240F0BF80D4E9163766
:1011800007F01F07404502FA07F25A5019DC9F2169
:10119000C4F20201884231DC5721C4F202018842C4
:1011A00056DC1021C4F20201884200F0918028210F
:1011B000C4F20201884200F08B804021C4F2020197
:1011C00084E045F22F41C5F6020188422BDC40F253
:1011D000B741C4F20201884248DC40F27041C4F2D7
:1011E0000201884274D040F28841C4F20201884270
:1011F0006ED040F2A041C4F2020167E040F2274104
:10120000C4F20201884240DCA021C4F202018842FB
:101210005ED0B821C4F20201884259D040F2104198
:10122000C4F2020152E045F26B41C5F60201884268
:101230003CDC45F23041C5F60201884248D045F217
:101240004441C5F60201884242D045F258413BE094
:101250005821C4F2020188423AD07021C4F202013E
:10126000884235D08821C4F202012FE040F2B84113
:10127000C4F2020188422BD045F20841C5F60201B2
:10128000884225D045F21C411EE040F22841C4F2BC
:10129000020188421CD040F24041C4F2020188425F
:1012A00016D040F25841C4F202010FE045F26C4101
:1012B000C5F6020188420BD045F29441C5F6020101
:1012C000884205D045F28041C5F6020188420BD123
:1012D000616EA26EE06E4A6030B1016821F48071E7
:1012E0000160D4E91C014160012084F83500002030
:1012F000002184F83410BDE8F081042101223DE78B
:10130000F0B190F83510022918D180B540F20F42A3
:101310000168C4F20202914214DC6F23C4F202039A
:10132000994224DC3F23C4F2020399423ADC1023A1
:10133000C4F20203994258D0282352E0802141652B
:101340000120704740F26F43C4F2020399421ADC55
:1013500040F23F43C4F2020399422ADC40F21043B8
:10136000C4F20203994240D040F2284339E09F235F
:10137000C4F20203994225DC7023C4F202039942AD
:1013800033D088232DE040F29F43C4F202039942F8
:101390001FDC40F27043C4F20203994225D040F2B0
:1013A00088431EE04023C4F2020399421DD0582313
:1013B00017E040F24043C4F20203994215D040F2D4
:1013C00058430EE0A023C4F2020399420DD0B82383
:1013D00007E040F2B843C4F20203994205D040F25C
:1013E000A043C4F2020399426ED191424FF004022D
:1013F00080F8352010DC6F20C4F20200814220DC2E
:101400003F20C4F20200814236DC1020C4F2020008
:10141000814253D028204EE040F26F40C4F20200D7
:1014200081421ADC40F23F40C4F2020081422ADCD1
:1014300040F21040C4F2020081423FD040F2284006
:1014400039E09F20C4F20200814225DC7020C4F202
:101450000200814232D088202DE040F29F40C4F249
:10146000020081421FDC40F27040C4F2020081425F
:1014700024D040F288401EE04020C4F202008142A5
:101480001CD0582017E040F24040C4F202008142D4
:1014900014D040F258400EE0A020C4F20200814275
:1014A0000CD0B82007E040F2B840C4F202008142FC
:1014B00004D040F2A040C4F202008142086820F04B
:1014C00001000860002080BD0A6822F00E020A6058
:1014D00045F25742C5F6020291420A6822F0010223
:1014E0000A600EDC45F22F42C5F60202914217DC7B
:1014F00045F20842C5F60202914226D045F21C424E
:101500001FE045F27F42C5F60202914211DC45F22E
:101510005842C5F60202914217D045F26C4210E0E3
:1015200045F23042C5F6020291420ED045F24442E5
:1015300007E045F29442C5F60202914205D045F219
:101540008042C5F6020291421AD1D0E9181CD0E9B6
:1015500016E30A6822F480720A6003F01F01012278
:1015600002FA01F1CEF80410816ECCF80410C16EBD
:1015700031B10A6822F480720A60D0E91C124A6014
:10158000012180F83510016D0022002980F83420F7
:1015900098D08847002080BD2DE9F04381B000211C
:1015A000009141F2000148F2B513C2F20001C1F608
:1015B0004E33856D40F26F490A680168C4F2020932
:1015C0002E68A2FB032849452B6815DC9F22C4F234
:1015D000020291422BDC5722C4F2020291424FDCFC
:1015E0001022C4F20202914278D02822C4F20202F0
:1015F000914273D040226CE045F22F42C5F60202C0
:10160000914227DC40F2B742C4F20202914243DC2D
:1016100040F27042C4F2020291425FD040F288422E
:10162000C4F20202914259D040F2A04251E040F28D
:101630002742C4F2020291423DDCA022C4F202021F
:1016400091424BD0B822C4F20202914246D040F2FD
:1016500010423EE045F26B42C5F60202914275DC53
:1016600045F23042C5F60202914200F0828045F216
:101670004442C5F6020291427BD045F2584273E0E3
:101680005822C4F20202914228D07022C4F202020F
:10169000914223D088221CE040F2B842C4F20202F8
:1016A00091421BD045F20842C5F60202914260D039
:1016B00045F21C4258E040F22842C4F20202914234
:1016C0000CD040F24042C4F20202914206D040F2F5
:1016D0005842C4F20202914240F02D84C26D0823A8
:1016E00002F01F029340334200F0168140F20F4493
:1016F000C4F20204A1424FF0040413DC6F27C4F2C9
:101700000207B94200F391803F27C4F20207B942B1
:1017100000F3D2801027C4F20207B94200F0F08033
:101720002827E8E0494500F38C8040F23F47C4F2A7
:101730000207B94200F3C78040F21047C4F2020723
:10174000B94200F0DD8040F22847D4E045F26C4217
:10175000C5F6020291420CD045F28042C5F6020263
:10176000914206D045F29442C5F60202914240F001
:10177000E2830E68C26D02F01F02042707FA02F42A
:101780001C4218BF16F004072CD1022707FA02F4F6
:101790001C4218BF16F0020762D1D3401B0740F16C
:1017A000CA8316F0080300F0C68340F20F43C4F268
:1017B000020399426FF01C0300F318836F27C4F2F1
:1017C0000207B94200F354833F27C4F20207B9422B
:1017D00000F3B4831027C4F20207B94200F0D383A8
:1017E0002827CAE332046C605ED4B20600F1A183FC
:1017F00040F20F42C4F2020291426FF0080200F37D
:10180000E3826F23C4F20203994200F302833F2371
:10181000C4F20203994200F347831023C4F2020387
:10182000994200F0838328237AE39F27C4F20207BA
:10183000B94251DC7027C4F20207B94260D0882750
:1018400059E040F29F47C4F20207B9424BDC40F234
:101850007047C4F20207B94252D040F288474AE0CA
:1018600032046C6000F19C82B20600F1CF8340F23A
:101870000F42C4F2020291426FF0140200F3D682CA
:101880006F23C4F20203994200F315833F23C4F28D
:101890000203994200F38C831023C4F2020399429D
:1018A00000F0AB832823A2E3F10300F14283816CB3
:1018B000002940F079833EE34027C4F20207B94291
:1018C0001ED0582717E040F24047C4F20207B94241
:1018D00016D040F258470EE0A027C4F20207B942E2
:1018E0000ED0B82707E040F2A047C4F20207B94281
:1018F00006D040F2B847C4F20207B94218BF082424
:101900000F68274208D00F6827F004070F60AB600C
:10191000436D43F0010343650123934033426FD08D
:1019200040F20F47C4F20207B94210DC6F27C4F23D
:101930000207B9421CDC3F27C4F20207B94232DC7D
:101940001027C4F20207B94251D028274AE049457E
:101950001ADC40F23F47C4F20207B9422ADC40F2E7
:101960001047C4F20207B94241D040F2284739E09B
:101970009F27C4F20207B94225DC7027C4F2020790
:10198000B94234D088272DE040F29F47C4F20207C5
:10199000B9421FDC40F27047C4F20207B94226D0B8
:1019A00040F288471EE04027C4F20207B9421ED029
:1019B000582717E040F24047C4F20207B94216D058
:1019C00040F258470EE0A027C4F20207B9420ED0F9
:1019D000B82707E040F2B847C4F20207B94206D080
:1019E00040F2A047C4F20207B94240F0E1814F69DA
:1019F00007F0800424B1AB60436D43F002034365FC
:101A00000423934033426FD040F20F47C4F20207E1
:101A1000B94210DC6F27C4F20207B9421CDC3F2731
:101A2000C4F20207B94232DC1027C4F20207B942FD
:101A300051D028274AE049451ADC40F23F47C4F21A
:101A40000207B9422ADC40F21047C4F20207B94249
:101A500041D040F2284739E09F27C4F20207B9423B
:101A600025DC7027C4F20207B94234D088272DE064
:101A700040F29F47C4F20207B9421FDC40F27047B0
:101A8000C4F20207B94226D040F288471EE0402740
:101A9000C4F20207B9421ED0582717E040F240476F
:101AA000C4F20207B94216D040F258470EE0A02710
:101AB000C4F20207B9420ED0B82707E040F2B84797
:101AC000C4F20207B94206D040F2A047C4F20207AE
:101AD000B94240F073810F6807F0020424B1AB6093
:101AE000436D43F004034365102303FA02F23242CC
:101AF0007ED040F20F43C4F2020399424FF0080334
:101B000010DC6F27C4F20207B9421CDC3F27C4F285
:101B10000207B94232DC1027C4F20207B94251D0A1
:101B200028274AE049451ADC40F23F47C4F2020741
:101B3000B9422ADC40F21047C4F20207B94241D050
:101B400040F2284739E09F27C4F20207B94225DC5A
:101B50007027C4F20207B94234D088272DE040F242
:101B60009F47C4F20207B9421FDC40F27047C4F23B
:101B70000207B94226D040F288471EE04027C4F24F
:101B80000207B9421ED0582717E040F24047C4F27E
:101B90000207B94216D040F258470EE0A027C4F21F
:101BA0000207B9420ED0B82707E040F2A047C4F2BE
:101BB0000207B94206D040F2B847C4F20207B94260
:101BC00018BF04230F681F4212D0AA600A6852038C
:101BD0000A6806D4D20506D40A6822F008020A6010
:101BE00001E0110352D4016C11B10446884720462C
:101BF000C16D01F01F02202101FA02F3334200F00F
:101C0000A68040F20F470168C4F202071026B942CD
:101C100010DC6F27C4F20207B9421CDC3F27C4F274
:101C20000207B94236DC1027C4F20207B94255D088
:101C300028274EE049451ADC40F23F47C4F202072C
:101C4000B9422EDC40F21047C4F20207B94245D037
:101C500040F228473DE09F27C4F20207B94229DC41
:101C60007027C4F20207B94238D0882731E040F229
:101C70009F47C4F20207B94223DC40F27047C4F226
:101C80000207B9422AD040F2884722E0816C00293D
:101C9000ABD1ADE74027C4F20207B9421ED05827A6
:101CA00017E040F24047C4F20207B94216D040F2B2
:101CB00058470EE0A027C4F20207B9420ED0B82759
:101CC00007E040F2A047C4F20207B94206D040F252
:101CD000B847C4F20207B94218BF02260F6837425C
:101CE00035D0AB6090F83530042B0B6816D123F05B
:101CF00016030B604B6923F080034B61036C0BB937
:101D0000836C1BB10B6823F008030B603F219140EB
:101D1000A960012180F83510016D3FE15A030A687E
:101D20000CD4D2050ED40A6822F010020A600121F8
:101D300080F83510002180F8341003E0110301D43D
:101D4000416C00E0C16B11B1044688472046416DEB
:101D5000002900F0F080416DC9071CD0042180F8F3
:101D6000351001684FEA98220B6823F001030B60DD
:101D7000009B01330093934202D80B68DB07F7D135
:101D80000968C9074FF0030108BF012180F8351029
:101D9000002180F83410C16C002940F00581CAE0B0
:101DA000F10300F13381416C002940F0FD80C2E075
:101DB00000240F68002C7FF41EAE21E600240F687B
:101DC000002C7FF48CAE8FE6494542DC40F23F4365
:101DD000C4F2020399427CDC40F21043C4F20203D5
:101DE000994200F0A38040F2284399E049454CDC39
:101DF00040F23F47C4F20207B94200F3A68040F226
:101E00001047C4F20207B94200F0BD8040F22847F3
:101E1000B3E09F23C4F20203994263DC7023C4F24F
:101E20000203994200F08280882379E0494560DC12
:101E300040F23F43C4F20203994200F3C08040F2F3
:101E40001043C4F20203994200F0D78040F22843C5
:101E5000CDE040F29F43C4F20203994258DC40F2C5
:101E60007043C4F20203994260D040F2884357E0C5
:101E70009F27C4F20207B94270DC7027C4F2020740
:101E8000B94200F08080882777E040F29F47C4F293
:101E90000207B94269DC40F27047C4F20207B94256
:101EA00071D040F2884768E04023C4F202039942AF
:101EB0003CD0582334E09F23C4F20203994200F33C
:101EC00087807023C4F20203994200F09680882331
:101ED0008DE040F24043C4F20203994226D040F222
:101EE00058431DE0A023C4F2020399421ED0B82338
:101EF00016E040F29F43C4F2020399426FDC40F2C5
:101F00007043C4F20203994277D040F288436EE0F6
:101F100040F2A043C4F20203994207D040F2B84312
:101F2000C4F20203994218BF6FF004020B681A4012
:101F30000A60016CC1BB01B0BDE8F0834027C4F268
:101F40000207B9421FD0582717E040F24047C4F2B9
:101F50000207B94217D040F258470EE0A027C4F25A
:101F60000207B9420FD0B82707E040F2A047C4F2F9
:101F70000207B94207D040F2B847C4F20207B9429B
:101F800018BF6FF00E030F683B400B60012101FA90
:101F900002F26A60416580F83510C16C00294FF08B
:101FA000000280F83420C6D001B0BDE8F0430847F5
:101FB0004023C4F2020399421FD0582317E040F295
:101FC0004043C4F20203994217D040F258430EE056
:101FD000A023C4F2020399420FD0B82307E040F2D5
:101FE000A043C4F20203994207D040F2B843C4F2BE
:101FF0000203994218BF6FF00A020B681A400A6088
:10200000012180F83510002180F83410C16B0029BF
:10201000CAD190E7000000002DE9F041044600F02D
:1020200003FCECB140F26F4805462068C4F2020898
:10203000404518DC9F21C4F2020188422EDC572162
:10204000C4F20201884254DC1021C4F20201884229
:102050007DD02821C4F20201884278D0402171E06D
:102060000120BDE8F08145F22F41C5F6020188420A
:1020700027DC40F2B741C4F20201884245DC40F25D
:102080007041C4F20201884261D040F28841C4F23A
:10209000020188425BD040F2A04153E040F2274168
:1020A000C4F2020188423FDCA021C4F2020188424E
:1020B0004DD0B821C4F20201884248D040F210410C
:1020C00040E045F26B41C5F60201884200F3928080
:1020D00045F23041C5F60201884200F09D8045F28C
:1020E0004441C5F60201884200F0968045F258410D
:1020F0008EE05821C4F20201884228D07021C4F237
:102100000201884223D088211CE040F2B841C4F289
:10211000020188421BD045F20841C5F602018842FF
:102120007AD045F21C4173E040F22841C4F202012A
:1021300088420CD040F24041C4F20201884206D0ED
:1021400040F25841C4F20201884240F0C5800221A9
:1021500084F83510002184F83410016821F0010161
:10216000016000BF20680168C9070CD000F05CFB6B
:10217000401B0628F6D320206065032084F8350034
:102180000120BDE8F08148F23F0204F10806016831
:10219000CFF61062114065694CCE1143A269194314
:1021A000E3693143266A0D43616A2B43042943EAFC
:1021B000060343EA020303D1D4E90B652E433343FC
:1021C00041F20006C5F600463668B6F1005F6CD3F2
:1021D0006568A5F12906202E05D23F27CCF2C0372D
:1021E000F740FF075CD1A5F14F060025042E38BF4C
:1021F000012556E045F26C41C5F6020188420BD03C
:1022000045F28041C5F60201884205D045F294416D
:10221000C5F6020188425FD104F1080E022184F85C
:102220003510002184F834100168A3699EE8045039
:10223000A2F18005E769B5FA85F566696D09402A5E
:102240004FEA853543EA07026FF3101142EA0602AE
:1022500008BF102541EADC0142EA0E022943236A45
:1022600041EAD2014AF6F832CAF2FD724CF6CD4785
:102270000244CCF6CC4741EA1311A2FB07230160CC
:102280006FF0030000EA9300E0652046FEF714FBC0
:10229000E16D012201F01F0102FA01F1416045E008
:1022A0000125002D18BF43F48013036004294369FE
:1022B00023F0070341EA03012DD1D4E90A5341EA8F
:1022C000050143B3B2F5005F08D09AB9022D16D0CC
:1022D000012D09D09DB115E040204DE7032D11D807
:1022E000DFE805F00A0D0A02A3F1C072B2FA82F229
:1022F000520908E0032D01D2012204E002D1C3F308
:10230000006200E0002232B140206065012084F8C4
:102310003500BDE8F08141612046FEF7CDFAE16D60
:102320003F2201F01F0102FA01F18160206840455F
:1023300019DC9F21C4F20201884231DC5721C4F22A
:102340000201884256DC1021C4F20201884200F0EA
:1023500092802821C4F20201884200F08C80402142
:10236000C4F2020184E045F22F41C5F60201884221
:102370002BDC40F2B741C4F20201884248DC40F253
:102380007041C4F20201884275D040F28841C4F223
:10239000020188426FD040F2A041C4F2020167E01E
:1023A00040F22741C4F20201884240DCA021C4F27D
:1023B000020188425FD0B821C4F2020188425AD09B
:1023C00040F21041C4F2020152E045F26B41C5F601
:1023D000020188423CDC45F23041C5F602018842E8
:1023E00049D045F24441C5F60201884243D045F246
:1023F00058413BE05821C4F2020188423BD0702191
:10240000C4F20201884236D08821C4F202012FE0D2
:1024100040F2B841C4F2020188422CD045F2084192
:10242000C5F60201884226D045F21C411EE040F26A
:102430002841C4F2020188421DD040F24041C4F25A
:102440000201884217D040F25841C4F202010FE065
:1024500045F26C41C5F6020188420CD045F2944128
:10246000C5F60201884206D045F28041C5F6020158
:10247000884240F0D08045F2574C45F6FC0EC5F638
:10248000020CC5F6020E60450EDC45F22F43C5F680
:102490000203984217DC45F20843C5F6020398424E
:1024A00026D045F21C431FE045F27F43C5F60203E8
:1024B000984211DC45F25843C5F60203984217D002
:1024C00045F26C4310E045F23043C5F602039842F2
:1024D0000ED045F2444307E045F29443C5F60203AB
:1024E000984205D045F28043C5F60203984250D188
:1024F00000F0FC034CF6CD47083BCCF6CC47A3FBE1
:102500000737AEF1FC05AEF17C063B0905EB830213
:102510002266A26803F01F030127802A666607FA75
:1025200003F2A26601D1002262606368A56ED4E95D
:102530001827DEB2591E072916607D6015D8013EA6
:10254000072E62D860450EF1440213DC45F22F419C
:10255000C5F6020188423CDC45F20841C5F602019D
:1025600088424BD045F21C4144E000206067C4E93A
:102570001B0050E045F27F41C5F60201884231DC84
:1025800045F25841C5F60201884237D045F26C4108
:1025900030E000F0F8034AF6AB27103BCAF6AA2752
:1025A000A3FB073740F20F43C4F2020308253E099C
:1025B000984203F1AA02334688BF05EB171340F691
:1025C00000059042C4F2020528BF334605F180069B
:1025D0009CE745F23041C5F6020188420ED045F233
:1025E000444107E045F28041C5F60201884205D02A
:1025F00045F29441C5F60201884213D10EEB8300E7
:10260000E06601202267B040606704F16C0200239D
:1026100007CA03604A6000206065012184F8351014
:10262000BDE8F08140F60000C4F2020000F1FC0EAB
:1026300000F5A072E2E70000B0B5044600F0F4F83F
:1026400041F208010546C2F20001621C097818BF78
:102650000C4400BF00F0E8F8401BA042FAD3B0BD24
:102660002DE9F04F83B00E68002E00F0C78000F116
:10267000264742F2004507F1FF77C5F602050A2218
:10268000A8424FEAB72500F1200308BF09220093B2
:10269000092D38BF4FEAB722002400274FF0000A67
:1026A00001920AE00AF1010A0E6836FA0AF207F10D
:1026B000020704F1040400F0A180012202FA0AFBDF
:1026C00016EA0B08EED0D1F80490032209F0030EAD
:1026D000AEF10106012E02FA07F610D8D0F808C0B4
:1026E000CD682CEA0602BD402A438260C9F300157A
:1026F000426822EA0B0205FA0AF52A434260BEF15B
:10270000030F1FD0C2688D68B243BD40BEF1020FF7
:1027100042EA0502C26015D16FF00302009D02EA91
:102720005A0B04F01C030F2255F80BC002FA03FEEB
:10273000D1F810902CEA0E0C09FA03F343EA0C03CB
:1027400045F80B3002684B68B24303F00306BE4005
:1027500013F4403F42EA06020260A3D044F2F4437D
:1027600040F2084CC5F60203C5F6000C0F251A68A6
:1027700042F002021A601A6802F0020202922AF083
:102780000302029B04F00C0352F80C609D40AE4320
:10279000019D05FA03F3334342F80C304FF0B04C7F
:1027A000DCF800204B6842EA0806DD0258BF22EA46
:1027B00008069D02CCF8006040F2040CC5F6000C3F
:1027C000DCF8002042EA080658BF22EA08069D030A
:1027D000CCF80060DCF8802042EA080658BF22EA04
:1027E0000806DB03CCF88060DCF87C2042EA0806AF
:1027F00058BF22EA0806CCF87C6053E703B0BDE876
:10280000F08F000000000000002A08BF0904816169
:10281000704700000000000041F20000C5F60040D3
:102820000068000C7047000047F6F800C2F2010093
:10283000006870470000000046F28041C5F60201C2
:1028400051F8200040F20031C8F20001401A18BFD0
:10285000012070470000000046F2004241F4407140
:10286000C5F6020242F82010704700000000000088
:1028700090F84120202A03D190F84020012A01D16C
:1028800002207047242280F841200268136823F058
:1028900001031360136823F4805313601368194312
:1028A0001160116841F001011160202180F8411090
:1028B000002180F840100020704700000000000058
:1028C00090F84120202A03D190F84020012A01D11C
:1028D00002207047242280F841200268136823F008
:1028E00001031360136823F4706343EA012111604C
:1028F000116841F001011160202180F84110002190
:1029000080F840100020704700284DD010B590F896
:10291000411031B9002180F84010044600F048F819
:102920002046242180F8411090E80610C46822F067
:1029300070620B68012C23F001030B600A614FF4F5
:1029400004438A6808BF4FF40043022C22F400427B
:102950008A604CEA03028A6002D14FF400624A6046
:102960004A6800F1100C42F0007242F400424A60E2
:10297000CA6822F40042CA609CE81C101A4342EA6A
:102980000422CA60026A42EA0C020A600A6842F043
:1029900001020A6000214164202280F84120016385
:1029A00080F84210002010BD012070470000000098
:1029B000B0B5BAB0044602A8C8210025CDE9385503
:1029C000CDE936553595FDF7DBFC45F6000120686D
:1029D000C4F20001884235D045F20041C4F2000142
:1029E000884261D10820029002A800240394249414
:1029F00001F032F808B1FDF7EFFF44F2E04535A9E8
:102A0000C5F60205286840F002002860286800F03A
:102A10000200019001984FF4407035901220CDE9EA
:102A200036040420399040F200403894C5F6020084
:102A3000FFF716FEA86840F40010A860A86800F42C
:102A400000102FE00820029002A80395249501F0C1
:102A500003F808B1FDF7C0FF44F2E04440F2004142
:102A6000C5F60204C5F60201206840F0800020602F
:102A7000206800F0800001900198302035901220ED
:102A800036900020CDE937000420399001F5C05080
:102A900035A9FFF7E5FDA06840F48000A060A068BC
:102AA00000F48000019001983AB0B0BD0000000031
:102AB00041F2080047F6F801C2F20000C2F201013B
:102AC00000780A68104408607047000000000000A9
:102AD00080B5032000F028F901F0D2FE44F218413D
:102AE0004DF29C73C5F60201C0F600030A68C2F3FA
:102AF00003229A5C096801F00F0102F01F02595C81
:102B0000D04041F20402C2F2000201F01F0120FA9B
:102B100001F1116041F20001C2F2000108600F20D2
:102B200000F00AF800281CBF012080BD00F0A8F8C2
:102B3000002080BD000000000F2847D8B0B58AB043
:102B400004461D2000222146002500F0BDF81D206E
:102B500000F0A6F841F20C00C2F20000046044F25A
:102B6000E840C5F60200016841F00201016000681A
:102B700001A900F002000290029802A801F0CCFD29
:102B8000079C002C18BF012401F01AFE4DF683614A
:102B9000A040C4F21B3140F20042A0FB010147F209
:102BA000F060C2F201004FF0FF33C4F20002026095
:102BB00003EB9141C0E9011540F2E731C0E903158B
:102BC00002F086FD20B101200AB0B0BD012070479F
:102BD00047F2F060C2F2010002F0AEFD0AB0B0BDF3
:102BE000B0B502784EF69C5CCEF2000C43784CF8FF
:102BF000043CF2B14368CCF80030037BC17A90F812
:102C00000AE0457B447A42EA0372837B42EA01612F
:102C1000C27B41EACE41007A41EA854141EA434123
:102C200041EA024141EA042141EA4000CCF80400B3
:102C3000B0BD0020CCF80000CCF80400B0BD00000E
:102C40004EF62450CEF20000BFF35F8F016821F4EE
:102C50008031016000210167704700000000000022
:102C60004EF6245140F00100CEF2000108670868DA
:102C700040F480300860BFF34F8FBFF36F8F704711
:102C800081B044F2F440C5F60200016841F002014F
:102C90000160006800F002000090009801B07047E9
:102CA000002848BF704700F01F01012202FA01F11D
:102CB0004EF20012C0F34A10CEF2000242F8201089
:102CC000704700000000000070B54EF60C5C4FF03D
:102CD000FF36CEF2000C00F1604505F56445DCF8E6
:102CE0000030C3F3022E8EF00703042B28BF042309
:102CF000BEF1030406FA03F321EA030100F00F0317
:102D000038BF0024043B0028634406FA04F048BF9F
:102D100003F10C05A14022EA0000084300012870DD
:102D200070BD0000000000004EF60C514FF6FF038E
:102D3000CEF200010A681A4060F30A2242F0806075
:102D400040F0FD700860704770B544F60C0604460C
:102D5000C5F602063168306801F00701062912D174
:102D600020F03F0020433060FFF75EFD054600BFC6
:102D700056F8080C80040CD4FFF756FD401BB0F544
:102D80007A7FF5D91DE000F03F00001B18BF01203D
:102D900070BDA4F11D010020112913D8012202FAEF
:102DA00001F111F0031F0DD0FFF73EFD044600BFF7
:102DB0003068C00307D4FFF737FD001BB0F57A7FFA
:102DC000F6D9012070BD002070BD00000000000099
:102DD0002DE9F041154688460446FFF725FD94F895
:102DE0004010012902D10220BDE8F08106460120F1
:102DF00084F8400094F8410001284FF0020056D1B9
:102E00000021616484F8410020688068800602D453
:102E1000012100201AE06F1C04E000BF20688068D8
:102E2000800611D5002FF9D0FFF7FEFC15B1801BED
:102E3000A842F3D9042084F84100606C002140F0DE
:102E400001006064012001E00020012179B3074600
:102E500000222046414603F0A3FCD8F8240010BB12
:102E600020688068800717D46F1C03E020688068A2
:102E7000800711D4002FF9D0FFF7D6FC15B1801BC5
:102E8000A842F3D9042084F84100606C002140F08E
:102E900001006064012001E00020012139B10746F2
:102EA00020680221C160012084F8410038460021D9
:102EB00084F84010BDE8F081F0B581B00446FFF71A
:102EC000B3FC002C45D0054694F8410028B92046B3
:102ED00000F05EF841F28830A06420686FF0FF03D4
:102EE000A168A66C026822F4F85203EB0121114399
:102EF0000160806880062FD40020012139B3D4E915
:102F000000124FF62F75D4E903370E68C0F2FF05A3
:102F10002E403343E66943EA0262236A32431A438E
:102F20000A604FF6FE034A68CFF6E0731A40636901
:102F30001A43A36942EA07421A434A600A6842F008
:102F400001020A6000216164012184F8411001B08E
:102F5000F0BD012001B0F0BD771C03E0206880685F
:102F60008006C9D5002FF9D0FFF75EFC16B1401BD3
:102F7000B042F3D9042084F84100606C002140F095
:102F80000100606401200029B9D1E0E700000000E1
:102F90002DE9F043B9B0044602A8C8210025CDE9C7
:102FA0003755CDE935553495FDF7EAF945F200017D
:102FB0002068C5F20021884202D039B0BDE8F08314
:102FC0004FF00070029002A80395159500F044FDA3
:102FD00008B1FDF701FD44F2E04041F20044C5F6BE
:102FE0000200C5F6020434AD4FF0020850F80C1C84
:102FF000002741F4804140F80C1C50F80C1C0326BB
:1030000001F4804101910199016841F040010160A2
:1030100001684FF00A0901F040010191019901682E
:1030200041F0200101600068294600F02000019075
:1030300001984020349004F58060CDF8D480369714
:103040003796CDF8E090FFF70BFB4FF498602946D8
:10305000CDE93408092038902046CDE93676FFF7CF
:10306000FFFA4FF440702946CDE934082046CDF8E8
:10307000E090CDE93676FFF7F3FA39B0BDE8F0839A
:103080002DE9F04381B0154688460446FFF7CCFB96
:10309000D4F80090D9F8181094F84020012A03D1F0
:1030A000022001B0BDE8F0830646012084F840000C
:1030B00094F84100012849D1B8F1000F4FF0000009
:1030C000606445D0222084F84100D9F81000012224
:1030D0000130A063D9F8100001306063C4F830807B
:1030E000D9F8140062F39B60C9F81400C9F81810ED
:1030F000A06B98B36F1C4FF0040800BF2068806875
:1031000010F0060F10D1002FF8D0FFF78DFB15B18E
:10311000801BA842F2D984F841800021606C40F005
:1031200001006064012001E00020012161B199F8F3
:103130002010226B1170216BA26B01312163511E93
:10314000A163A16B0029D9D160BB09E002202CE06A
:10315000606C40F008006064012026E0002008BB9D
:1031600020688068800717D46F1C03E0206880689F
:10317000800711D4002FF9D0FFF756FB15B1801B43
:10318000A842F3D9042084F84100606C002140F08B
:1031900001006064012001E00020012111B12168DB
:1031A0000222CA60012184F84110002184F84010F5
:1031B00001B0BDE8F08300002DE9F04381B0154671
:1031C0000F460446FFF730FBD4F8008094F8401017
:1031D000012903D1022001B0BDE8F0830646012099
:1031E00084F8400094F84100012842D1002F4FF0AC
:1031F000000060643FD0122084F84100D8F810002D
:103200000130E062D8F810000130A0626762D8F89F
:10321000140020F04060C8F81400E06A88B36F1C06
:103220004FF0040920688068400710D4002FF9D0BF
:10323000FFF7FAFA15B1801BA842F3D984F8419040
:103240000021606C40F001006064012001E000207A
:10325000012161B1616A097888F82010616AE26A27
:1032600001316162511EE162E16A0029DAD168BB75
:1032700009E002202DE0606C40F00800606401204D
:1032800027E0002010BB20688068800718D46F1CDE
:1032900004E000BF20688068800711D4002FF9D0B7
:1032A000FFF7C2FA15B1801BA842F3D9042084F8B5
:1032B0004100606C002140F001006064012001E0E9
:1032C0000020012111B121680222CA60012184F885
:1032D0004110002184F8401001B0BDE8F0830000E7
:1032E00080B501F045FA44F220414DF29C72C5F6DA
:1032F0000201C0F600020968C1F30211515C01F03D
:103300001F01C84080BD000080B544F2304EC5F6B4
:10331000020E5EF8083C5EF8081CC1F3051C5EF85E
:10332000041CBCF1000FDEF8042018D001F00101EC
:10333000494201EAD20103F003026FF35F31022A2E
:1033400000EE101AB8EE400A11D0012A0CD01AB9BA
:103350005EF8301C89060DD49FED341A18E0002168
:103360008160C0E9001180BD9FED2E1A10E09FED35
:103370002E1A0DE05EF8301C49F20002C0F2D03285
:10338000C1F3C10122FA01F101EE101AB8EE411A9F
:10339000DEF800109FED263A6FF35F2102EE101A5F
:1033A000DEF80010C1F34621B8EE422A00EE032AEF
:1033B00000EE10CAB7EE003AB8EE400A81EE000AFD
:1033C00032EE031A02EE101AB8EE422A20EE010A7B
:1033D00032EE031A80EE011ABCEEC11A80ED001A1B
:1033E000DEF80010C1F3064101EE101AB8EE411AE2
:1033F00031EE031A80EE011ABCEEC11A80ED011AFB
:10340000DEF80010C1F3066101EE101AB8EE411AA1
:1034100031EE031A80EE010ABCEEC00A10EE101A5B
:10342000816080BD0024744A20BCBE4B0024744CD3
:10343000000000390000000080B544F2384EC5F6A7
:10344000020E5EF8103C5EF8101C5EF80C2CC1F306
:10345000053CDEF80410BCF1000F15D0C908D206F7
:1034600001EAE2716FF35F3100EE101A03F003011D
:103470000229B8EE400A0CD071B95EF8381C8906F2
:103480000DD49FED351A18E000218160C0E90011CC
:1034900080BD9FED301A10E09FED2D1A0DE05EF813
:1034A000381C49F20002C0F2D032C1F3C10122FA45
:1034B00001F101EE101AB8EE411ADEF800109FED8E
:1034C000273A6FF35F2102EE101ADEF80010C1F305
:1034D0004621B8EE422A00EE032A00EE10CAB7EEEB
:1034E000003AB8EE400A81EE000A32EE031A02EE0C
:1034F000101AB8EE422A20EE010A32EE031A80EECC
:10350000011ABCEEC11A80ED001ADEF80010C1F3FA
:10351000064101EE101AB8EE411A31EE031A80EEA0
:10352000011ABCEEC11A80ED011ADEF80010C1F3D9
:10353000066101EE101AB8EE411A31EE031A80EE60
:10354000010ABCEEC00A10EE101A816080BD00BFF7
:103550000024744A20BCBE4B0024744C0000003987
:1035600080B544F2404EC5F6020E5EF8183C5EF897
:10357000181C5EF8142CC1F3055CDEF80410BCF1D5
:10358000000F15D0C908D20501EAE2716FF35F316F
:1035900000EE101A03F003010229B8EE400A0CD025
:1035A00071B95EF8401C89060DD49FED351A18E0FC
:1035B00000218160C0E9001180BD9FED301A10E04C
:1035C0009FED2D1A0DE05EF8401C49F20002C0F29A
:1035D000D032C1F3C10122FA01F101EE101AB8EEA6
:1035E000411ADEF800109FED273A6FF35F2102EEDB
:1035F000101ADEF80010C1F34621B8EE422A00EEA0
:10360000032A00EE10CAB7EE003AB8EE400A81EE87
:10361000000A32EE031A02EE101AB8EE422A20EE29
:10362000010A32EE031A80EE011ABCEEC11A80EDD7
:10363000001ADEF80010C1F3064101EE101AB8EED0
:10364000411A31EE031A80EE011ABCEEC11A80ED68
:10365000011ADEF80010C1F3066101EE101AB8EE8F
:10366000411A31EE031A80EE010ABCEEC00A10EED8
:10367000101A816080BD00BF0024744A20BCBE4B7C
:103680000024744C0000003910B584B0024641F6A5
:10369000FF7300209B1A70EB010329DB40F2FF331C
:1036A0009B1A70EB01034FDA82F480630B4300F046
:1036B000DC8082F400630B4300F0068182F48052C8
:1036C000114340F0A08144F20041C5F60201086DAB
:1036D000C0F30232042A00F24F8148F20000C0F227
:1036E000BB00DFE812F0030113011A01900127016A
:1036F00047F6FF739B1A70EB010351DA82F4004323
:103700000B4300F0D08082F480330B4300F0F08054
:1037100082F40022114340F0768144F20040C5F665
:103720000200816D01F44031B1F5003F00F03481B9
:10373000B1F5803F00F02781002940F01D8100682D
:10374000000100F1E68017E182F480730B4351D051
:1037500082F40072114340F0568144F20041C5F6F4
:103760000201086DC0F38212042A00F2058148F2BA
:103770000000C0F2BB00DFE812F0B900C900D000C1
:1037800046010500C86C0A68520700F040520868FC
:1037900002D5002A00F02681C00500F1D680D7E0CE
:1037A00082F400530B434CD082F48042114340F02A
:1037B0002A8144F20044C5F60204A06DC0F30270F1
:1037C000052800F2D980DFE810F006001701FB00A1
:1037D0000401F200200100F0CBFF216A4DF29C723F
:1037E000C0F60002C1F30211515C01F01F01C84094
:1037F00004B010BD44F20041C5F60201086D00F0AE
:103800000702042A00F2B88048F20000C0F2BB00B0
:10381000DFE812F06C007C008300F9000500C86C42
:103820000A68520700F04052086802D5002A00F0EA
:10383000D980C00540F18C80B2F1805F00F0F48047
:1038400086E044F20040C5F60200016DC1F302417A
:10385000052900F29180DFE801F00369B5C1AC35BC
:1038600004B0BDE8104000F0ABBF44F20041C5F623
:103870000201886DC0F34252042A00F27D8048F2B2
:103880000000C0F2BB00DFE802F0314148BE030097
:10389000C86C0A68520700F04052086853D5002AE5
:1038A00000F0A0804FE044F20040C5F60200016D38
:1038B00001F04051B1F1005F38D0B1F1805F58D0D4
:1038C000002959D10068A1E044F20041C5F6020187
:1038D000886DC0F30262042A4ED848F20000C0F29C
:1038E000BB00DFE802F003131A902700086841E0EC
:1038F00044F20040C5F60200C16C0068C90339D526
:10390000000139D501A8FFF797FD42E008680001E2
:1039100032D501A8FFF790FD05E0086880002BD59F
:1039200001A8FFF71DFE019804B010BD006800015A
:1039300022D564E0C86C0A68520700F0405208685B
:1039400001D5002A4ED0C00502D5B2F1805F6BD000
:103950000868B2F1005F00F400314FF0000004BFCE
:1039600047F64000C0F27D10002908BF084604B0A9
:1039700010BD0068800102D4002004B010BD01A871
:10398000FFF7C2FC3EE000688000F5D501A8FFF714
:10399000E7FD039804B010BDC16C0268520701F046
:1039A000405102683BD5D1BBC2F3C1001CE0206886
:1039B00000E0006840F60011C005C0F23D012AE0B9
:1039C000206800E000688000D6D501A8FFF7C8FD98
:1039D00018E020684007CFD5206803E00168490758
:1039E000CAD50068C0F3C10049F20001C0F2D0316D
:1039F00021FA00F004B010BD20680001BCD501A878
:103A0000FFF71AFD029804B010BD206847F6400188
:103A10008003C0F27D1101EAE07004B010BDD20550
:103A200008D5B1F1805F05D140F60010C0F23D002D
:103A300004B010BD0068B1F1005F00F400324FF037
:103A4000000004BF47F64000C0F27D10002A08BF06
:103A5000104604B010BD00002DE9F04381B00446CB
:103A6000C07844F22C490007C5F6020901D40025AC
:103A700020E0E06E4FEA3050032838D80025DFE818
:103A800000F0020A1C22D9F8000040F40030C9F806
:103A90000000D5B906E004F10800022102F06CFF35
:103AA000054695B9D9F82400E16E20F4401008438A
:103AB000C9F824004FF0000808E004F128000221B2
:103AC00002F0EAFF0546002DECD0A8466078C0075A
:103AD00021D0E06D042800F24E81DFE810F0E9000B
:103AE0001A010C00050005006DB1A84613E0012580
:103AF000002DEAD1D6E704F12800002102F0CCFF26
:103B00000546002DF1D1D9F82400E16D20F0070021
:103B10000843C9F82400607880071FD5206E4FEA5B
:103B2000B010042800F22C81DFE810F0CC00FD007A
:103B30000800050005004DB1A8460FE004F128007B
:103B4000002102F0A9FF0546002DF5D1D9F8240087
:103B5000216E20F4E0700843C9F824006078400723
:103B600021D5D4F8AC004FEA7050042800F20D8142
:103B7000DFE810F0B200E3000800050005004DB1D9
:103B8000A84610E004F12800002102F085FF054658
:103B9000002DF5D1D9F82C00D4F8AC1020F4600039
:103BA0000843C9F82C00607800071FD5D4F8B0008E
:103BB0004FEA3060042800F2ED80DFE800F097C89B
:103BC000060303004DB1A84610E004F128000021CF
:103BD00002F062FF0546002DF5D1D9F82C00D4F88B
:103BE000B01020F0E0600843C9F82C00E0788007AE
:103BF0001BD5E06C4FEA3010032830D8DFE800F026
:103C0000020526024DB1A8460FE0D9F8000040F4A5
:103C10000030C9F80000002DF5D1D9F82000E16C82
:103C200020F030000843C9F820006078C0062AD58B
:103C3000606E4FEA3030042800F2B180DFE800F017
:103C4000609113030300B5B1A8461CE004F108001D
:103C5000022102F091FE0546002DD4D1DDE70125B9
:103C6000002DD0D1D9E704F12800002102F014FF83
:103C70000546002DE8D1D9F82400616E20F4E0401B
:103C80000843C9F824006078800640F1A180A06E46
:103C90004FEA3040052800F29080DFE800F08B0307
:103CA000858B8B8B04F10800012102F065FE80E01A
:103CB000D9F8000040F40030C9F80000002D7FF46E
:103CC00014AF20E7D9F8000040F40030C9F8000034
:103CD000002D7FF431AF39E7D9F8000040F400300F
:103CE000C9F80000002D7FF44BAF53E7D9F800006E
:103CF00040F40030C9F80000002D7FF464AF6CE799
:103D0000D9F8000040F40030C9F80000002D9BD124
:103D1000B1E704F10800002102F02EFE0546002D57
:103D20007FF4E3AEEFE604F10800002102F024FE88
:103D30000546002D7FF400AF08E704F108000021DC
:103D400002F01AFE0546002D7FF41AAF22E704F1B7
:103D50000800002102F010FE0546002D7FF433AF6D
:103D60003BE704F10800002102F006FE0546002DA5
:103D70007FF46AAF7FE70125002D7FF4B6AEC2E67F
:103D80000125002D7FF4D8AEE0E60125002D7FF45B
:103D9000F7AEFFE60125002D7FF415AF1DE70125E5
:103DA000002D7FF451AF66E704F12800012102F0F5
:103DB00073FE054625B1A8460AE00125002DFAD17B
:103DC000D9F82400A16E20F4E0200843C9F82400AB
:103DD0006078400625D5D4F8B4004FEA3070052845
:103DE00013D8DFE800F00F03090F0F0F04F10800EC
:103DF000012102F0C1FD04E004F12800012102F0DC
:103E00004BFE054625B1A8460BE00125002DFAD151
:103E1000D9F82C00D4F8B41020F0E0400843C9F8D9
:103E20002C00E078400718D5206D40B1B0F5807FB8
:103E300008D104F10800012102F09EFD054625B1DC
:103E4000A8460AE00125002DFAD1D9F82000216DFD
:103E500020F480700843C9F820006078000620D55F
:103E6000606FD8B1B0F1005F12D0B0F1805F26D1A1
:103E7000D9F8000040F40030C9F8000085B9D9F83D
:103E80002400616F20F040500843C9F8240008E086
:103E900004F10800012102F06FFD0546002DEED06F
:103EA000A846E078C0071ED0A06C032800F28280EC
:103EB000DFE800F0020976026DB1A84613E00125A3
:103EC000002DEDD1DBE7D9F8000040F40030C9F84F
:103ED0000000002DF1D1D9F82000A16C20F00300E2
:103EE0000843C9F82000A078400645D5D9F8D40386
:103EF00040F48070C9F8D403FEF796FC064600BF74
:103F0000D9F8D403C00505D4FEF78EFC801B6528C4
:103F1000F6D303257DBBD9F84410D4F8B80041404E
:103F200011F4407F11D0D9F84410D9F8442042F45C
:103F30008032C9F84420D9F8442021F4407122F499
:103F40008032C9F84420C9F84410B0F5807F0FD101
:103F5000FEF76AFC064641F2893700BFD9F84400F3
:103F6000800705D4FEF760FC801BB842F6D303251A
:103F7000002D00F08C82A8462078C00734D0D4F8F9
:103F800080004FEAF000052822D8DFE800F01E0389
:103F9000181E1E1E04F10800012102F0EDFC13E0C2
:103FA00004F10800022102F0E7FC0546002D7FF431
:103FB00084AF90E70125002D7FF47FAF8BE704F1FC
:103FC0002800012102F068FD054625B1A8460BE056
:103FD0000125002DFAD1D9F82800D4F8801020F05E
:103FE00038000843C9F828002078800721D5E06F01
:103FF000052813D8DFE800F00F03090F0F0F04F1B5
:104000000800012102F0B8FC04E004F128000121BD
:1040100002F042FD054625B1A8460AE00125002D23
:10402000FAD1D9F82800E16F20F007000843C9F859
:1040300028002078400723D5D4F89800052813D805
:10404000DFE800F00F03090F0F0F04F10800012152
:1040500002F092FC04E004F12800012102F01CFDB2
:10406000054625B1A8460BE00125002DFAD1D9F867
:104070002C00D4F8981020F007000843C9F82C0051
:104080002078800625D5D4F894004FEA30700528B2
:1040900013D8DFE800F00F03090F0F0F04F1080039
:1040A000002102F069FC04E004F12800022102F082
:1040B000F3FC054625B1A8460BE00125002DFAD1F9
:1040C000D9F82800D4F8941020F0E0400843C9F84B
:1040D00028002078400625D5D4F8A0004FEAB0206B
:1040E000052813D8DFE800F00F03090F0F0F04F1C4
:1040F0000800002102F040FC04E004F12800022145
:1041000002F0CAFC054625B1A8460BE00125002DAA
:10411000FAD1D9F82C00D4F8A01020F4E0500843CC
:10412000C9F82C002078000625D5D4F8A4004FEA61
:104130007030052813D8DFE800F00F03090F0F0FC8
:1041400004F10800002102F017FC04E004F128004B
:10415000022102F0A1FC054625B1A8460BE001258D
:10416000002DFAD1D9F82C00D4F8A41020F4604026
:104170000843C9F82C002078000716D5D4F8880029
:10418000B0F5805F08D104F12800022102F084FC20
:10419000002818BF4FF00108D9F82800D4F888107B
:1041A00020F440500843C9F828002078C00616D5EE
:1041B000D4F89C00B0F5807F08D104F128000221DA
:1041C00002F06AFC002818BF4FF00108D9F82C0053
:1041D000D4F89C1020F440700843C9F82C00A07853
:1041E000000724D5D4F8A800B0F5003F1CD0B0F5E6
:1041F000803F13D0002840F0E98004F1080000213E
:1042000002F0BAFB05468DB9D9F82C00D4F8A810F5
:1042100020F440300843C9F82C0008E004F12800DD
:10422000022102F039FC0546002DEDD0A846A07809
:10423000400725D5D4F88C00B0F5401F1DD0B0F54F
:10424000001F14D0B0F5801F40F0C580D9F80000E1
:1042500040F40030C9F800008DB9D9F82800D4F82E
:104260008C1020F440100843C9F8280008E004F13D
:104270002800012102F010FC0546002DEDD0A846D3
:10428000A078C0071FD0606DB0F5803F0BD000282C
:1042900040F09780D9F8000040F40030C9F80000E1
:1042A0004DB1A8460FE004F10800022102F064FBC2
:1042B0000546002DF5D1D9F82000616D20F480303D
:1042C0000843C9F82000E078800608D504F12800EA
:1042D000022102F0E1FB002818BF4FF00108D4E9E9
:1042E00000108A0340F18680D4F884206FF0010327
:1042F00003EB3223022B0AD34FEA32233BB1012BCB
:104300006ED1D9F8003043F40033C9F80030002DE5
:1043100069D0CA0271D4CA007AD48A0200F18480BA
:104320004A0000F18C80CA0F40F09980090200F128
:10433000A180C00707D004F10800002102F01CFB97
:10434000002818BF05462079800707D504F108002A
:10435000012102F011FB002818BF05462079400713
:1043600007D504F10800022102F006FB002818BF5F
:1043700005462079000707D504F12800002102F046
:104380008BFB002818BF05462079C00607D504F12D
:104390002800012102F080FB002818BF0546207983
:1043A000800607D504F12800022102F075FB0028E1
:1043B00018BF0125002D18BF0125284601B0BDE812
:1043C000F0830125002D7FF46CAF74E70125002DEB
:1043D0007FF42CAF18E70125002D7FF450AF3CE7A8
:1043E0000125002D95D1D9F8283023F440731A43C4
:1043F000C9F828204546CA028DD5D9F82420A36FD4
:1044000022F000421A43C9F82420CA007FF585AF84
:1044100059F81C2CD4F8BC3022F480421A4349F8D5
:104420001C2C8A027FF57CAFD9F82420236F22F060
:1044300080721A43C9F824204A007FF574AF59F8F6
:104440001C2C22F4004249F81C2CD4F8C02059F846
:104450001C3C1A4349F81C2CCA0F3FF467AFD9F82B
:104460002020A36D22F040521A43C9F820200902EF
:104470007FF55FAFD9F82810D4F8902021F44001DF
:104480001143C9F82810C0077FF455AF5BE74FF61A
:10449000CF73D4F8B80059F81C2CC0F2FF0300F415
:1044A000407122F47C5203EA1013B1F5407F08BF3B
:1044B0001A436FF31F3049F81C2CD9F844100843F5
:1044C000C9F8440058E500002DE9F04381B0002808
:1044D00000F0F88042F200080446C5F20028894640
:1044E000D8F8000000F00F0088420ED2D8F8000083
:1044F00020F00F0040EA0900C8F80000D8F80000DA
:1045000000F00F00484540F0DD80206844F2184775
:104510004107C5F602070AD521693A6802F0700220
:10452000914204D93A6822F07002114339600107C0
:104530000AD561697A6802F07002914204D97A68FA
:1045400022F0700211437960C1060AD5A1697A6828
:1045500002F4E062914204D97A6822F4E0621143E5
:10456000796081060AD5E169BA6802F07002914269
:1045700004D9BA6822F070021143B96081070AD5E4
:10458000E1683A6802F00F02914204D93A6822F0D9
:104590000F0211433960C00740F080802068810716
:1045A0000AD5E1683A6802F00F02914204D23A68F3
:1045B00022F00F0211433960D8F8001001F00F010A
:1045C00049450DD9D8F8001021F00F0141EA090141
:1045D000C8F80010D8F8001001F00F01494571D15A
:1045E00041070AD521693A6802F07002914204D26B
:1045F0003A6822F070021143396001070AD56169F7
:104600007A6802F07002914204D27A6822F0700255
:1046100011437960C1060AD5A1697A6802F4E062A3
:10462000914204D27A6822F4E062114379608006F4
:104630000AD5E069B96801F07001884204D2B9680E
:1046400021F070010843B86000F01AF939684DF2A2
:104650009C72C0F60002C1F30321515C3B6803F079
:104660000F0301F01F01D25C20FA01F102F01F00DC
:1046700041F20402C2F2000221FA00F0106041F29D
:104680000C0041F20002C2F20000C2F20002006817
:10469000116001B0BDE8F043FEF74EBA386820F46F
:1046A0007061D4E9010211433960012857F8181CE0
:1046B0000CD0032804D0022828D1890302D507E0B2
:1046C000890105D4012001B0BDE8F083C905F9D501
:1046D00057F8081C21F00701084347F8080CFEF7BB
:1046E000A3F8064641F2883557F8080C616800F0D7
:1046F0003800B0EBC10F3FF451AFFEF795F8801BC7
:10470000A842F1D9032001B0BDE8F0834907D9D50B
:10471000DEE70000000000003F22026044F2184281
:10472000C5F6020252F8083C03F007034360136821
:1047300003F470638360136803F00F03C3601368AE
:1047400003F070030361536803F07003436153681F
:1047500003F4E0638361926802F07002C26142F286
:104760000000C5F20020006800F00F0008607047EC
:1047700080B500F085F844F218414DF29C73C5F6FF
:104780000201C0F600030A68C2F303229A5C0968BA
:1047900001F00F0102F01F02595C20FA02F201F051
:1047A0001F0041F20401C2F2000122FA00F0086089
:1047B00041F20001C2F200010A6080BD0000000069
:1047C00080B500F05DF844F2184C4DF29C73C5F6CC
:1047D000020CC0F60003DCF80020C2F303229A5C4E
:1047E000DCF8001001F00F0102F01F02595CD0400C
:1047F00041F20402C2F2000201F01F0120FA01F1AD
:10480000116041F20002C2F200021060DCF8040004
:10481000C0F30210185C00F01F0021FA00F080BD08
:1048200080B500F02DF844F2184C4DF29C73C5F69B
:10483000020CC0F60003DCF80020C2F303229A5CED
:10484000DCF8001001F00F0102F01F02595CD040AB
:1048500041F20402C2F2000201F01F0120FA01F14C
:10486000116041F20002C2F200021060DCF80400A4
:10487000C0F30220185C00F01F0021FA00F080BD98
:1048800044F20041C5F602010869C0F3C2000328E2
:1048900014D002280DD080BB0868800649F20000C1
:1048A000C0F2D03058BF70470968C1F3C101C84099
:1048B000704747F64000C0F27D1070478A6A886AE8
:1048C000C0F3051CC86ABCF1000F4B6B1AD000F096
:1048D0000100404200EAD3006FF35F3000EE100A9F
:1048E00002F003000228B8EE400A0DD078B908683B
:1048F00080060FD49FED231A19E040F60010C0F295
:104900003D007047002070479FED1D1A0FE09FED9E
:104910001B1A0CE0086849F20002C0F2D032C0F362
:10492000C10022FA00F001EE100AB8EE411A086B3D
:104930009FED153A6FF35F2002EE100A086BC0F38B
:104940004620B8EE422A013000EE032A00EE10CADB
:10495000B7EE003AB8EE400A81EE000A32EE031AD2
:1049600020EE010A01EE100AB8EE411A80EE010AAB
:10497000BCEEC00A10EE100A704700BF0024744A53
:1049800020BCBE4B0024744C000000390000000025
:104990002DE9F04381B0002800F0C78180460078FF
:1049A00044F20049C007C5F6020954D0D9F81000F6
:1049B00000F03801D9F82800102905D018290CD1A9
:1049C00000F00300022808D1D9F8000080033ED58A
:1049D000D8F80400D8BB01272CE0D8F80440D9F857
:1049E00000002CB1B4F5A02F0BD0B4F5803F0ED051
:1049F00020F48030C9F80000D9F8000020F48020AD
:104A000007E040F48020C9F80000D9F8000040F425
:104A10008030C9F80000FDF707FF05469CB100BFD4
:104A2000D9F80000800312D4FDF7FEFE401B642875
:104A3000F6D90327002070B9BCE100BFFDF7F4FEF2
:104A4000401B6428F5D8D9F800008003F6D4012073
:104A5000002800F0AF8198F80000800740F18080C6
:104A6000D9F8100010F03801D9F828001CD0182906
:104A700008BF5FEA807017D0D8F80C00D9F8001092
:104A8000002845D021F019010843C9F80000FDF7BE
:104A9000CBFE0546D9F80000400728D4FDF7C4FE38
:104AA000401B0228F6D91EE0D9F80000400704D5C3
:104AB000D8F80C00002800F0DC81D9F80000D8F804
:104AC0000C1020F019000843C9F80000FDF7ACFEF7
:104AD000054600BFD9F80000400708D4FDF7A4FE42
:104AE000401B0228F6D903270024CCBB62E1FDF766
:104AF00093FE41F20301884221D8D8F81000D9F87A
:104B00000410402821F47C3122D141F4003021E00E
:104B100021F00100C9F80000FDF786FE05460126D8
:104B2000D9F8000010F0040086EA900415D0FDF7D3
:104B30007BFE401B0228F3D903278CB93AE1D9F850
:104B40000400D8F8101020F0FE4040EA016001E0B7
:104B500041EA00300124C9F80400002C00F02A8149
:104B600098F80000C00670D5D9F8100000F03801A0
:104B7000D9F82800082905D018291CD100F0030015
:104B8000012818D1D9F80000C00503D5D8F81C00B9
:104B9000802855D1FDF740FE41F20301884222D81A
:104BA000D8F82000D9F80410202821F0F8413ED18F
:104BB00041F080403DE0D8F81C000028D9F8000002
:104BC0001ED040F08000C9F80000FDF72DFE05461C
:104BD000D9F80000C005DDD4FDF726FE401B0228F1
:104BE000F6D903272DE0D9F80C00D8F8201020F0D2
:104BF0007C50012440EA0160C9F80C002CBBD9E0CC
:104C000020F08000C9F80000FDF70EFE05460126E1
:104C1000D9F8000010F4807086EA10240CD0FDF75B
:104C200003FE401B0328F3D3032774B9C2E041EA13
:104C30008060C9F804000124002C00F0BB8004E06F
:104C400001270024002C00F0B58098F80000000730
:104C50006DD498F80000800600F1818098F800007B
:104C6000400700F19480D8F82440002C5BD0D9F89C
:104C7000100000F03800182840F0D980012CD9F835
:104C80002810D9F8300050D001F00302D8F82830AD
:104C90009A424AD1C1F30511D8F82C20914244D14F
:104CA0000146D8F830206FF35F21013A91423CD1A0
:104CB000C0F34622D8F8341001398A4235D1C0F306
:104CC0000642D8F8381001398A422ED1C0F3066066
:104CD000D8F83C100139884227D1D9F83400D8F8E7
:104CE0004810C0F3CC0081421DD0D9F82C0020F030
:104CF0000100C9F82C00FDF797FD0546FDF794FD6E
:104D0000A842FBD0D9F834004FF6F871D8F8482003
:104D1000884340EAC200C9F83400D9F82C0040F0BA
:104D20000100C9F82C00002744E0012742E0D8F830
:104D300014000028D9F8740040D040F00100C9F8F0
:104D40007400FDF771FD0546D9F8740080073FF542
:104D500080AFFDF769FD401B0228F5D929E0D8F89E
:104D600018000028D9F800004DD040F48050C9F850
:104D70000000FDF759FD0546D9F8000080043FF515
:104D80006DAFFDF751FD401B0228F5D911E0D9F8B0
:104D9000000440F48070C9F80004FDF745FD0546A5
:104DA000D9F80004C0051CD4FDF73EFD401B642863
:104DB000F6D90327F8B201B0BDE8F08320F0010076
:104DC000C9F87400FDF730FD05460327D9F87400D3
:104DD00080077FF53EAFFDF727FD401B0228F5D980
:104DE000E8E7D8F80840D9F870001CB1052C42D08B
:104DF000012C46D020F00100C9F87000D9F87000ED
:104E000020F004003FE020F48050C9F80000FDF7D6
:104E10000BFD0546032700BFD9F8000080047FF58D
:104E20001DAFFDF701FD401B0228F5D9C2E7D9F8F7
:104E3000000020F08070C9F80000FDF7F5FC022C9E
:104E400005464FF0030709D1D9F8000080013CD591
:104E5000FDF7EAFC401B0228F6D9ABE7D9F80000C1
:104E600080017FF560AFFDF7DFFC401B0228F5D91C
:104E7000A0E7012738E640F00400C9F87000D9F82F
:104E8000700040F00100C9F87000FDF7CDFC002C67
:104E9000054641F288344FF0030711D0D9F870006D
:104EA00080073FF5E0AEFDF7BFFC401BA042F5D9FF
:104EB00080E700BFFDF7B8FC401BA0423FF67AAF89
:104EC000D9F870008007F5D4CDE608F12807D9F8A5
:104ED000280040F2F33188438ECF0843591E40EA40
:104EE00002104FF47E426FF35F21C9F8280002EBF5
:104EF00047204FF4FE0280B2D8F83C300844D8F87E
:104F0000381002EB01414FF0FE4201F4FE0102EBCA
:104F10000362084402F0FE410844C9F83000D9F8A1
:104F20002C004FF6F87120F00100C9F82C00D9F8D8
:104F30003400D8F84820884340EAC200C9F8340059
:104F4000D9F82C00D8F8401020F00C000843C9F81C
:104F50002C00D9F82C00D8F8441020F002000843A7
:104F6000C9F82C00D9F82C0040F48030C9F82C0086
:104F7000D9F82C0040F40030C9F82C00D9F82C00E6
:104F800040F48020C9F82C00D9F82C0040F0010032
:104F9000C9F82C00D9F8000040F08070C9F8000072
:104FA000FDF742FC04460327D9F8000080013FF5D5
:104FB000BAAEFDF739FC001B0228F5D9FAE600006D
:104FC00008B32DE9F04381B00446FDF725FC94F8C1
:104FD0003800012819D145F204412068C5F60001C6
:104FE000884206D045F60401C4F20101884240F02F
:104FF000A8806068012840F0A480606C28B101207E
:1050000001B0BDE8F0830120704746F2030021683B
:10501000C4F2010045F600098142C4F201094FF0D3
:10502000010012DC45F60342C4F20102914221DC88
:1050300045F60402C4F2010291423AD045F6240238
:10504000C4F20102914234D0DAE745F20342C5F6D8
:10505000000291421DDC46F20402C4F201029142B8
:1050600005D046F22402C4F201029142C8D109F5EA
:1050700000691EE045F60442C4F20102914205D0E7
:1050800045F62442C4F201029142B9D109F5806982
:105090000FE045F20442C5F60002914205D045F208
:1050A0002442C5F600029142AAD145F20049C5F654
:1050B000000994F8910028B9002084F89000204657
:1050C00000F086F941F200004EF61B42C2F20000E9
:1050D000C9F2CB52032301682068CFF6C073A1FB4D
:1050E0000212016821F48031016063EA922100BF5D
:1050F00001311ED20268D203FAD411B3022184F81E
:105100009110D4E90223591E013AB1FA81F1022B20
:105110004FEA51114FEA011108BF2021042A00F281
:105120007F80DFE802F0031A151812004FF4806840
:1051300015E0D4F8942042F04002C4F894200029ED
:10514000DCD1012001B0BDE8F08341F0030104E0AF
:1051500041F0010101E041F002014FF40068C9F89B
:105160000010216A00297ED045F6240140F020007D
:10517000C4F20101884205D14FF480700021FEF78E
:1051800083FA00E00020216845F6244241F0200126
:10519000C4F20102914204D14FF400700021FEF7E5
:1051A00073FA216846F2240241F02001C4F20102A0
:1051B000914204D14FF400700021FEF765FA45F2E8
:1051C00000472168C5F600073A1D914204D14FF40B
:1051D00080600021FEF758FA216807F1240291420D
:1051E00004D14FF400600021FEF74EFAA169B1F539
:1051F000002F07D1616C042915D0082915D14FF46F
:10520000807113E0A16A00EB800001F17C41226A09
:10521000B1FA81F14000490902FA01F109020AE0FC
:105220004FF000089BE7402100E0616D226A00EB2F
:10523000800040005143B0FBF1F14CF6CD40CCF67C
:10524000CC40A1FB0002D00800EB8003A1EB43019E
:1052500001230829616C88BF03EBD2000429606236
:1052600001D140086062606840F00200022804D169
:10527000206D013818BF012004E0206D0138B0FA1C
:1052800080F040094CF210064702CFF20506FDF708
:10529000C3FA2168B0F5005F086815D3304004F107
:1052A00044060860636845CE1843636A1043E26AA7
:1052B000304366691043A26930431043A26A40EA52
:1052C00003502369104314E006F1006210400860A7
:1052D000606CA56C62681043E26C2843E56A104379
:1052E000626AD4E9053628431843A36A304340EA8A
:1052F00002500A68184310434EF20F0640EA0800B5
:10530000384308602068E169D4E90C2347681143F9
:10531000B7434760194342681143416048F20002B5
:105320008168CFF6F8726FF0FF0311408160616D04
:105330000139626E1143E26D1143226E1143A26D79
:10534000876803EB0222394311438160C1684FF241
:10535000200204F168071140C160C6CF114303EB7E
:10536000062241EA074145F20447C368C5F6000733
:105370001943B84241EA0201C16005D045F6040173
:10538000C4F20101884218D1D9F8440020F001008C
:10539000C9F8440094F8380001280ED1D4E90F016F
:1053A0006FF00F0202EB00100843C9F84400D9F86F
:1053B000440040F00100C9F844000020C4F8940003
:1053C000012184F8911084F8900001B0BDE8F083C9
:1053D00070B5B8B004466846C821FAF7D1FF45F663
:1053E00004012068C4F20101884201D038B070BDC8
:1053F00000200190C022079220224FF48071CDE955
:10540000082068460091042102910A21039102219B
:10541000CDE90411012106911791FEF71DFB08B19A
:10542000FBF7DAFA41F21400C2F20000016861B938
:1054300044F2F041C5F602010A6842F480020A60B3
:10544000096801F480013391339901680026013124
:1054500001604420339002203490379041F20000E4
:10546000C5F6020033A9CDE93566FDF7F9F847F234
:10547000B8451020C2F20105C4F202004FF40061E9
:1054800028605720C5E901064FF4806028614FF479
:10549000005069614FF48071EE60C5E906014FF478
:1054A0000030C5E908062846FCF7B6FD08B1FBF751
:1054B00093FAAC63C4E9205538B070BD0000000019
:1054C00020B3B0B5044690F82C000D4628B9002052
:1054D00084F82D00204600F01BF8022084F82C00F0
:1054E0002068211DFBF7C4FAD4E900022946FBF726
:1054F00027FB44F20000C5F20020016841F00041A2
:105500000160012084F82C000020B0BD012070470C
:105510002DE9F047BAB041F210000025C2F20000B8
:105520003995389501783595CDE93655002970D1F2
:1055300002AC4FF0010880F80080C8212046FAF73D
:105540001FFF4FF080700290204603951495FEF7E0
:1055500083FA08B1FBF740FA44F2D44040F6000465
:10556000C5F60200C5F6020435AD4FF00209016828
:105570004FF0000A41F4805101600068294600F4B0
:105580008050019001984FF68370359004F50060CB
:10559000CDF8D8900327CDF8DCA00C2638973996A3
:1055A000FDF75EF835A948F23710CDE9387681E885
:1055B000010604F580502946FDF752F835A94CF252
:1055C0000370CDE9387681E8010604F5806029464C
:1055D000FDF746F835A94FF63F00CDE9387681E86A
:1055E000010604F540602946FDF73AF835A829463A
:1055F000CDE9387680E800072046FDF731F835A878
:105600002946CDE9387680E8400604F5A050FDF73C
:1056100027F83AB0BDE8F08790F82C20022A01D193
:105620000220704790F82C20012A4FF001020ED181
:10563000B0B5022280F82C200268044610460125ED
:10564000FBF75AFA002284F82C50BDE8B04010460F
:10565000704700000000000090F82C30022B01D1B0
:105660000220704703F0FB03012B4FF0010313D11D
:1056700070B5022380F82C300368054618460126D1
:105680000C46FBF745FA20680023022808BF0526D0
:1056900085F82C60BDE87040184670470000000097
:1056A00040F20442C5F60002136823EA00000843F2
:1056B000106070470000000070470000000000000C
:1056C000704700000000000070470000000000006C
:1056D00060B310B5044690F83D0028B9002084F866
:1056E0003C00204600F024F8022084F83D002068A9
:1056F000211D01F049FB012084F8480084F83E0098
:1057000084F83F0084F8400084F8410084F84200A7
:1057100084F8430084F8440084F8450084F8460087
:1057200084F8470084F83D00002010BD0120704738
:10573000704700000000000090F83D1001291BD1C7
:10574000022180F83D10016841F2FF70C4F20000B0
:105750008142C86840F00100C8600FDC40F2FF7071
:10576000C4F20000814217DCB1F1804F2BD040F22F
:105770000040C4F2000024E00120704740F2FF30F6
:10578000C4F20100814212DC41F60000C4F20000C4
:10579000814218D0002012E040F60000C4F2000060
:1057A000814210D040F60040C4F2000009E044F20B
:1057B0000000C4F20100814205D040F20040C4F272
:1057C000010081420BD107228868C0F20102024029
:1057D0000020062A18BFB2F5803F00D17047086844
:1057E00040F0010008600020704700000000000049
:1057F000704700000000000010B504460068016911
:10580000890744BFC1685FEA817147D42068016994
:10581000490744BFC1685FEA41714BD42068016900
:10582000090744BFC1685FEA017150D4206801696B
:10583000C90644BFC1685FEAC16154D420680169E8
:10584000C9071CBFC1685FEAC17159D120680169ED
:10585000090644BFC1685FEA016158D42068016944
:10586000C90544BFC1685FEA016157D42068016976
:10587000490644BFC1685FEA416156D420680169A6
:10588000890646BFC1685FEA816110BD6FF02001E3
:1058900001612046BDE81040FFF716BF6FF002011E
:1058A0000161012121778069800745D02046FFF7FB
:1058B0009FFF47E06FF004010161022121778069B9
:1058C00010F4407F41D02046FFF792FF43E06FF095
:1058D0000801016104212177C06980073ED020467C
:1058E000FFF786FF40E06FF010010161082121778A
:1058F000C06910F4407F3AD02046FFF779FF3CE0C2
:105900006FF001010161204600F042F89EE76FF060
:10591000800101612046FFF7D3FE9FE76FF480719D
:1059200001612046FFF7C8FEA0E76FF0400101616A
:10593000204600F039F8A1E7204600F021F8204683
:1059400000F022F80020207760E7204600F018F8E9
:10595000204600F019F8002020775FE7204600F08D
:105960000FF8204600F010F8002020775EE7204670
:1059700000F006F8204600F007F8002020775DE7E9
:1059800070470000000000007047000000000000A9
:1059900040F200410068C4F20001884218BF70471D
:1059A000FDF786B80000000070470000000000000E
:1059B00090F88410012901D1022070472421C0F8F9
:1059C000881001680A680B6822F0005223F0010376
:1059D0000B60002343660A602021C0F8881080F81D
:1059E0008430002070470000D0F88C30202B06D186
:1059F00003460120002918BF002A02D17047022067
:105A0000704710B50120D8660020186718461C465C
:105A100002F0A2F8002818BF10BDE26E012A0ED1D4
:105A200022682146102313620A6852E8002F0B688F
:105A300042F0100243E80024002CF5D110BD0120F3
:105A400010BD000000000000F0B581B044F6004732
:105A50000546C4F20007006807F544420C46904230
:105A600018D147F2703647F23C70C2F20106C2F21A
:105A7000010080223146FFF7B7FF47F26C20314624
:105A8000C2F201002246FAF754FC47F26C30C2F22F
:105A9000010004702868B84201D001B0F0BD47F69B
:105AA000FC1547F23C70C2F20105C2F20100FF236F
:105AB0002946224600F07CFB47F664004022C2F2F1
:105AC00001002946FFF790FF47F6FC002946C2F285
:105AD00001002246FAF72DFC01B0F0BD00000000E5
